{
  "contractName": "SupplyChain",
  "abi": [
    {
      "inputs": [],
      "stateMutability": "payable",
      "type": "constructor",
      "payable": true
    },
    {
      "anonymous": false,
      "inputs": [
        {
          "indexed": true,
          "internalType": "address",
          "name": "account",
          "type": "address"
        }
      ],
      "name": "ConsumerAdded",
      "type": "event"
    },
    {
      "anonymous": false,
      "inputs": [
        {
          "indexed": true,
          "internalType": "address",
          "name": "account",
          "type": "address"
        }
      ],
      "name": "ConsumerRemoved",
      "type": "event"
    },
    {
      "anonymous": false,
      "inputs": [
        {
          "indexed": true,
          "internalType": "address",
          "name": "account",
          "type": "address"
        }
      ],
      "name": "DistributorAdded",
      "type": "event"
    },
    {
      "anonymous": false,
      "inputs": [
        {
          "indexed": true,
          "internalType": "address",
          "name": "account",
          "type": "address"
        }
      ],
      "name": "DistributorRemoved",
      "type": "event"
    },
    {
      "anonymous": false,
      "inputs": [
        {
          "indexed": true,
          "internalType": "address",
          "name": "account",
          "type": "address"
        }
      ],
      "name": "FarmerAdded",
      "type": "event"
    },
    {
      "anonymous": false,
      "inputs": [
        {
          "indexed": true,
          "internalType": "address",
          "name": "account",
          "type": "address"
        }
      ],
      "name": "FarmerRemoved",
      "type": "event"
    },
    {
      "anonymous": false,
      "inputs": [
        {
          "indexed": false,
          "internalType": "uint256",
          "name": "upc",
          "type": "uint256"
        }
      ],
      "name": "ForSale",
      "type": "event"
    },
    {
      "anonymous": false,
      "inputs": [
        {
          "indexed": false,
          "internalType": "uint256",
          "name": "upc",
          "type": "uint256"
        }
      ],
      "name": "Harvested",
      "type": "event"
    },
    {
      "anonymous": false,
      "inputs": [
        {
          "indexed": true,
          "internalType": "address",
          "name": "previousOwner",
          "type": "address"
        },
        {
          "indexed": true,
          "internalType": "address",
          "name": "newOwner",
          "type": "address"
        }
      ],
      "name": "OwnershipTransferred",
      "type": "event"
    },
    {
      "anonymous": false,
      "inputs": [
        {
          "indexed": false,
          "internalType": "uint256",
          "name": "upc",
          "type": "uint256"
        }
      ],
      "name": "Packed",
      "type": "event"
    },
    {
      "anonymous": false,
      "inputs": [
        {
          "indexed": false,
          "internalType": "uint256",
          "name": "upc",
          "type": "uint256"
        }
      ],
      "name": "Processed",
      "type": "event"
    },
    {
      "anonymous": false,
      "inputs": [
        {
          "indexed": false,
          "internalType": "uint256",
          "name": "upc",
          "type": "uint256"
        }
      ],
      "name": "Purchased",
      "type": "event"
    },
    {
      "anonymous": false,
      "inputs": [
        {
          "indexed": false,
          "internalType": "uint256",
          "name": "upc",
          "type": "uint256"
        }
      ],
      "name": "Received",
      "type": "event"
    },
    {
      "anonymous": false,
      "inputs": [
        {
          "indexed": true,
          "internalType": "address",
          "name": "account",
          "type": "address"
        }
      ],
      "name": "RetailerAdded",
      "type": "event"
    },
    {
      "anonymous": false,
      "inputs": [
        {
          "indexed": true,
          "internalType": "address",
          "name": "account",
          "type": "address"
        }
      ],
      "name": "RetailerRemoved",
      "type": "event"
    },
    {
      "anonymous": false,
      "inputs": [
        {
          "indexed": false,
          "internalType": "uint256",
          "name": "upc",
          "type": "uint256"
        }
      ],
      "name": "Shipped",
      "type": "event"
    },
    {
      "anonymous": false,
      "inputs": [
        {
          "indexed": false,
          "internalType": "uint256",
          "name": "upc",
          "type": "uint256"
        }
      ],
      "name": "Sold",
      "type": "event"
    },
    {
      "inputs": [
        {
          "internalType": "address",
          "name": "account",
          "type": "address"
        }
      ],
      "name": "addConsumer",
      "outputs": [],
      "stateMutability": "nonpayable",
      "type": "function"
    },
    {
      "inputs": [
        {
          "internalType": "address",
          "name": "account",
          "type": "address"
        }
      ],
      "name": "addDistributor",
      "outputs": [],
      "stateMutability": "nonpayable",
      "type": "function"
    },
    {
      "inputs": [
        {
          "internalType": "address",
          "name": "account",
          "type": "address"
        }
      ],
      "name": "addFarmer",
      "outputs": [],
      "stateMutability": "nonpayable",
      "type": "function"
    },
    {
      "inputs": [
        {
          "internalType": "address",
          "name": "account",
          "type": "address"
        }
      ],
      "name": "addRetailer",
      "outputs": [],
      "stateMutability": "nonpayable",
      "type": "function"
    },
    {
      "inputs": [
        {
          "internalType": "address",
          "name": "account",
          "type": "address"
        }
      ],
      "name": "isConsumer",
      "outputs": [
        {
          "internalType": "bool",
          "name": "",
          "type": "bool"
        }
      ],
      "stateMutability": "view",
      "type": "function",
      "constant": true
    },
    {
      "inputs": [
        {
          "internalType": "address",
          "name": "account",
          "type": "address"
        }
      ],
      "name": "isDistributor",
      "outputs": [
        {
          "internalType": "bool",
          "name": "",
          "type": "bool"
        }
      ],
      "stateMutability": "view",
      "type": "function",
      "constant": true
    },
    {
      "inputs": [
        {
          "internalType": "address",
          "name": "account",
          "type": "address"
        }
      ],
      "name": "isFarmer",
      "outputs": [
        {
          "internalType": "bool",
          "name": "",
          "type": "bool"
        }
      ],
      "stateMutability": "view",
      "type": "function",
      "constant": true
    },
    {
      "inputs": [
        {
          "internalType": "address",
          "name": "account",
          "type": "address"
        }
      ],
      "name": "isRetailer",
      "outputs": [
        {
          "internalType": "bool",
          "name": "",
          "type": "bool"
        }
      ],
      "stateMutability": "view",
      "type": "function",
      "constant": true
    },
    {
      "inputs": [],
      "name": "owner",
      "outputs": [
        {
          "internalType": "address",
          "name": "",
          "type": "address"
        }
      ],
      "stateMutability": "view",
      "type": "function",
      "constant": true
    },
    {
      "inputs": [],
      "name": "renounceConsumer",
      "outputs": [],
      "stateMutability": "nonpayable",
      "type": "function"
    },
    {
      "inputs": [],
      "name": "renounceDistributor",
      "outputs": [],
      "stateMutability": "nonpayable",
      "type": "function"
    },
    {
      "inputs": [],
      "name": "renounceFarmer",
      "outputs": [],
      "stateMutability": "nonpayable",
      "type": "function"
    },
    {
      "inputs": [],
      "name": "renounceOwnership",
      "outputs": [],
      "stateMutability": "nonpayable",
      "type": "function"
    },
    {
      "inputs": [],
      "name": "renounceRetailer",
      "outputs": [],
      "stateMutability": "nonpayable",
      "type": "function"
    },
    {
      "inputs": [
        {
          "internalType": "address",
          "name": "newOwner",
          "type": "address"
        }
      ],
      "name": "transferOwnership",
      "outputs": [],
      "stateMutability": "nonpayable",
      "type": "function"
    },
    {
      "inputs": [
        {
          "internalType": "uint256",
          "name": "_upc",
          "type": "uint256"
        },
        {
          "internalType": "address payable",
          "name": "_farmerID",
          "type": "address"
        },
        {
          "internalType": "string",
          "name": "_farmName",
          "type": "string"
        },
        {
          "internalType": "string",
          "name": "_farmInformation",
          "type": "string"
        },
        {
          "internalType": "string",
          "name": "_farmLatitude",
          "type": "string"
        },
        {
          "internalType": "string",
          "name": "_farmLongitude",
          "type": "string"
        },
        {
          "internalType": "string",
          "name": "_productNotes",
          "type": "string"
        }
      ],
      "name": "harvestItem",
      "outputs": [],
      "stateMutability": "nonpayable",
      "type": "function"
    },
    {
      "inputs": [
        {
          "internalType": "uint256",
          "name": "_upc",
          "type": "uint256"
        }
      ],
      "name": "processItem",
      "outputs": [],
      "stateMutability": "nonpayable",
      "type": "function"
    },
    {
      "inputs": [
        {
          "internalType": "uint256",
          "name": "_upc",
          "type": "uint256"
        }
      ],
      "name": "packItem",
      "outputs": [],
      "stateMutability": "nonpayable",
      "type": "function"
    },
    {
      "inputs": [
        {
          "internalType": "uint256",
          "name": "_upc",
          "type": "uint256"
        },
        {
          "internalType": "uint256",
          "name": "_price",
          "type": "uint256"
        }
      ],
      "name": "sellItem",
      "outputs": [],
      "stateMutability": "nonpayable",
      "type": "function"
    },
    {
      "inputs": [
        {
          "internalType": "uint256",
          "name": "_upc",
          "type": "uint256"
        }
      ],
      "name": "buyItem",
      "outputs": [],
      "stateMutability": "payable",
      "type": "function",
      "payable": true
    },
    {
      "inputs": [
        {
          "internalType": "uint256",
          "name": "_upc",
          "type": "uint256"
        }
      ],
      "name": "shipItem",
      "outputs": [],
      "stateMutability": "nonpayable",
      "type": "function"
    },
    {
      "inputs": [
        {
          "internalType": "uint256",
          "name": "_upc",
          "type": "uint256"
        }
      ],
      "name": "receiverItem",
      "outputs": [],
      "stateMutability": "nonpayable",
      "type": "function"
    },
    {
      "inputs": [
        {
          "internalType": "uint256",
          "name": "_upc",
          "type": "uint256"
        }
      ],
      "name": "purchaseItem",
      "outputs": [],
      "stateMutability": "nonpayable",
      "type": "function"
    },
    {
      "inputs": [
        {
          "internalType": "uint256",
          "name": "_upc",
          "type": "uint256"
        }
      ],
      "name": "fetchItemBufferOne",
      "outputs": [
        {
          "internalType": "uint256",
          "name": "itemSKU",
          "type": "uint256"
        },
        {
          "internalType": "uint256",
          "name": "itemUPC",
          "type": "uint256"
        },
        {
          "internalType": "address",
          "name": "ownerID",
          "type": "address"
        },
        {
          "internalType": "address",
          "name": "farmerID",
          "type": "address"
        },
        {
          "internalType": "string",
          "name": "farmName",
          "type": "string"
        },
        {
          "internalType": "string",
          "name": "farmInformation",
          "type": "string"
        },
        {
          "internalType": "string",
          "name": "farmLatitude",
          "type": "string"
        },
        {
          "internalType": "string",
          "name": "farmLongitude",
          "type": "string"
        }
      ],
      "stateMutability": "view",
      "type": "function",
      "constant": true
    },
    {
      "inputs": [
        {
          "internalType": "uint256",
          "name": "_upc",
          "type": "uint256"
        }
      ],
      "name": "fetchItemBufferTwo",
      "outputs": [
        {
          "internalType": "uint256",
          "name": "itemSKU",
          "type": "uint256"
        },
        {
          "internalType": "uint256",
          "name": "itemUPC",
          "type": "uint256"
        },
        {
          "internalType": "uint256",
          "name": "productID",
          "type": "uint256"
        },
        {
          "internalType": "string",
          "name": "productNotes",
          "type": "string"
        },
        {
          "internalType": "uint256",
          "name": "productPrice",
          "type": "uint256"
        },
        {
          "internalType": "uint256",
          "name": "itemState",
          "type": "uint256"
        },
        {
          "internalType": "address",
          "name": "distributorID",
          "type": "address"
        },
        {
          "internalType": "address",
          "name": "retailerID",
          "type": "address"
        },
        {
          "internalType": "address",
          "name": "consumerID",
          "type": "address"
        }
      ],
      "stateMutability": "view",
      "type": "function",
      "constant": true
    }
  ],
  "bytecode": "0x608060405262000024620000186200007e60201b60201c565b6200008660201b60201c565b62000035336200014a60201b60201c565b6200004633620001ab60201b60201c565b62000057336200020c60201b60201c565b62000068336200026d60201b60201c565b6001600681905550600160058190555062000417565b600033905090565b60008060009054906101000a900473ffffffffffffffffffffffffffffffffffffffff169050816000806101000a81548173ffffffffffffffffffffffffffffffffffffffff021916908373ffffffffffffffffffffffffffffffffffffffff1602179055508173ffffffffffffffffffffffffffffffffffffffff168173ffffffffffffffffffffffffffffffffffffffff167f8be0079c531659141344cd1fd0a4f28419497f9722a3daafe3b4186f6b6457e060405160405180910390a35050565b62000165816001620002ce60201b62001b7c1790919060201c565b8073ffffffffffffffffffffffffffffffffffffffff167f28b26e7a3d20aedbc5f8f2ebf7da671c0491723a2b78f47a097b0e46dee0714260405160405180910390a250565b620001c6816002620002ce60201b62001b7c1790919060201c565b8073ffffffffffffffffffffffffffffffffffffffff167f2e0ded4123377a3c2bc9a26f1717655a129e2f20752924d42e730ec89c83dbd060405160405180910390a250565b62000227816003620002ce60201b62001b7c1790919060201c565b8073ffffffffffffffffffffffffffffffffffffffff167fddbf200aa634dc3fb81cfd68583dd1040d1c751d335e1d86b631bde3e977fea860405160405180910390a250565b62000288816004620002ce60201b62001b7c1790919060201c565b8073ffffffffffffffffffffffffffffffffffffffff167f71ae26cad02663e3d92efd6ec56031a80d74a20c0ab4183faa8bf262261c9baa60405160405180910390a250565b600073ffffffffffffffffffffffffffffffffffffffff168173ffffffffffffffffffffffffffffffffffffffff1614156200030957600080fd5b6200031b82826200038460201b60201c565b156200032657600080fd5b60018260000160008373ffffffffffffffffffffffffffffffffffffffff1673ffffffffffffffffffffffffffffffffffffffff16815260200190815260200160002060006101000a81548160ff0219169083151502179055505050565b60008073ffffffffffffffffffffffffffffffffffffffff168273ffffffffffffffffffffffffffffffffffffffff161415620003c057600080fd5b8260000160008373ffffffffffffffffffffffffffffffffffffffff1673ffffffffffffffffffffffffffffffffffffffff16815260200190815260200160002060009054906101000a900460ff16905092915050565b612ad380620004276000396000f3fe6080604052600436106101665760003560e01c8063834ff739116100d1578063c3e7db741161008a578063e7fb74c711610064578063e7fb74c7146104f7578063f2fde38b14610513578063f30fc4801461053c578063f61c899a1461056557610166565b8063c3e7db741461048e578063d38ea5bf146104b7578063db0e6a2f146104e057610166565b8063834ff7391461035a5780638da5cb5b146103975780638ec4f505146103c25780638f0c86fa146103eb578063b942906914610428578063bdd8a6a81461046557610166565b806366225ff91161012357806366225ff914610251578063715018a6146102965780637250e224146102ad57806377c45913146102d657806380c3f96d1461031a57806380fc0ce41461034357610166565b8063112940f91461016b5780632d9235611461019457806349dae766146101bd5780635da09b88146101e657806361e6982d14610223578063644241db1461023a575b600080fd5b34801561017757600080fd5b50610192600480360381019061018d9190612294565b61058e565b005b3480156101a057600080fd5b506101bb60048036038101906101b691906122f7565b6105ac565b005b3480156101c957600080fd5b506101e460048036038101906101df9190612337565b610707565b005b3480156101f257600080fd5b5061020d60048036038101906102089190612294565b610846565b60405161021a919061237f565b60405180910390f35b34801561022f57600080fd5b50610238610863565b005b34801561024657600080fd5b5061024f61086e565b005b34801561025d57600080fd5b5061027860048036038101906102739190612337565b610879565b60405161028d99989796959493929190612451565b60405180910390f35b3480156102a257600080fd5b506102ab610a7d565b005b3480156102b957600080fd5b506102d460048036038101906102cf9190612294565b610a91565b005b3480156102e257600080fd5b506102fd60048036038101906102f89190612337565b610aaf565b6040516103119897969594939291906124e5565b60405180910390f35b34801561032657600080fd5b50610341600480360381019061033c9190612294565b610dee565b005b34801561034f57600080fd5b50610358610e0c565b005b34801561036657600080fd5b50610381600480360381019061037c9190612294565b610e17565b60405161038e919061237f565b60405180910390f35b3480156103a357600080fd5b506103ac610e34565b6040516103b9919061257f565b60405180910390f35b3480156103ce57600080fd5b506103e960048036038101906103e49190612294565b610e5d565b005b3480156103f757600080fd5b50610412600480360381019061040d9190612294565b610e7b565b60405161041f919061237f565b60405180910390f35b34801561043457600080fd5b5061044f600480360381019061044a9190612294565b610e98565b60405161045c919061237f565b60405180910390f35b34801561047157600080fd5b5061048c6004803603810190610487919061270d565b610eb5565b005b34801561049a57600080fd5b506104b560048036038101906104b09190612337565b61126b565b005b3480156104c357600080fd5b506104de60048036038101906104d99190612337565b6113f6565b005b3480156104ec57600080fd5b506104f5611580565b005b610511600480360381019061050c9190612337565b61158b565b005b34801561051f57600080fd5b5061053a60048036038101906105359190612294565b61187a565b005b34801561054857600080fd5b50610563600480360381019061055e9190612337565b6118fe565b005b34801561057157600080fd5b5061058c60048036038101906105879190612337565b611a3d565b005b61059733610e17565b6105a057600080fd5b6105a981611c28565b50565b81600260078111156105c1576105c061283b565b5b60076000838152602001908152602001600020600b0160009054906101000a900460ff1660078111156105f7576105f661283b565b5b1461060157600080fd5b6007600084815260200190815260200160002060030160009054906101000a900473ffffffffffffffffffffffffffffffffffffffff168073ffffffffffffffffffffffffffffffffffffffff163373ffffffffffffffffffffffffffffffffffffffff161461067057600080fd5b600360076000868152602001908152602001600020600b0160006101000a81548160ff021916908360078111156106aa576106a961283b565b5b02179055508260076000868152602001908152602001600020600a01819055507fa96ae0fc3224ebd79eebfe54bd130cc9cb94416cddd1f2386115e00b72532468846040516106f9919061286a565b60405180910390a150505050565b806000600781111561071c5761071b61283b565b5b60076000838152602001908152602001600020600b0160009054906101000a900460ff1660078111156107525761075161283b565b5b1461075c57600080fd5b6007600083815260200190815260200160002060030160009054906101000a900473ffffffffffffffffffffffffffffffffffffffff168073ffffffffffffffffffffffffffffffffffffffff163373ffffffffffffffffffffffffffffffffffffffff16146107cb57600080fd5b600160076000858152602001908152602001600020600b0160006101000a81548160ff021916908360078111156108055761080461283b565b5b02179055507f5afe3b1bf87069693c075da5c22a98d63d1aef98a30dbbe538d0781a98b77ee583604051610839919061286a565b60405180910390a1505050565b600061085c826004611c8290919063ffffffff16565b9050919050565b61086c33611d14565b565b61087733611d6e565b565b600080600060606000806000806000600760008b8152602001908152602001600020600001549850600760008b8152602001908152602001600020600101549750600760008b8152602001908152602001600020600801549650600760008b815260200190815260200160002060090180546108f4906128b4565b80601f0160208091040260200160405190810160405280929190818152602001828054610920906128b4565b801561096d5780601f106109425761010080835404028352916020019161096d565b820191906000526020600020905b81548152906001019060200180831161095057829003601f168201915b50505050509550600760008b8152602001908152602001600020600a01549450600760008b8152602001908152602001600020600b0160009054906101000a900460ff1660078111156109c3576109c261283b565b5b9350600760008b8152602001908152602001600020600b0160019054906101000a900473ffffffffffffffffffffffffffffffffffffffff169250600760008b8152602001908152602001600020600c0160009054906101000a900473ffffffffffffffffffffffffffffffffffffffff169150600760008b8152602001908152602001600020600d0160009054906101000a900473ffffffffffffffffffffffffffffffffffffffff1690509193959799909294969850565b610a85611dc8565b610a8f6000611e46565b565b610a9a33610e7b565b610aa357600080fd5b610aac81611f0a565b50565b600080600080606080606080600760008a8152602001908152602001600020600001549750600760008a8152602001908152602001600020600101549650600760008a815260200190815260200160002060020160009054906101000a900473ffffffffffffffffffffffffffffffffffffffff169550600760008a815260200190815260200160002060030160009054906101000a900473ffffffffffffffffffffffffffffffffffffffff169450600760008a81526020019081526020016000206004018054610b80906128b4565b80601f0160208091040260200160405190810160405280929190818152602001828054610bac906128b4565b8015610bf95780601f10610bce57610100808354040283529160200191610bf9565b820191906000526020600020905b815481529060010190602001808311610bdc57829003601f168201915b50505050509350600760008a81526020019081526020016000206005018054610c21906128b4565b80601f0160208091040260200160405190810160405280929190818152602001828054610c4d906128b4565b8015610c9a5780601f10610c6f57610100808354040283529160200191610c9a565b820191906000526020600020905b815481529060010190602001808311610c7d57829003601f168201915b50505050509250600760008a81526020019081526020016000206006018054610cc2906128b4565b80601f0160208091040260200160405190810160405280929190818152602001828054610cee906128b4565b8015610d3b5780601f10610d1057610100808354040283529160200191610d3b565b820191906000526020600020905b815481529060010190602001808311610d1e57829003601f168201915b50505050509150600760008a81526020019081526020016000206007018054610d63906128b4565b80601f0160208091040260200160405190810160405280929190818152602001828054610d8f906128b4565b8015610ddc5780601f10610db157610100808354040283529160200191610ddc565b820191906000526020600020905b815481529060010190602001808311610dbf57829003601f168201915b50505050509050919395975091939597565b610df733610e98565b610e0057600080fd5b610e0981611f64565b50565b610e1533611fbe565b565b6000610e2d826001611c8290919063ffffffff16565b9050919050565b60008060009054906101000a900473ffffffffffffffffffffffffffffffffffffffff16905090565b610e6633610846565b610e6f57600080fd5b610e7881612018565b50565b6000610e91826003611c8290919063ffffffff16565b9050919050565b6000610eae826002611c8290919063ffffffff16565b9050919050565b604051806101e0016040528060065481526020018881526020018773ffffffffffffffffffffffffffffffffffffffff1681526020018773ffffffffffffffffffffffffffffffffffffffff16815260200186815260200185815260200184815260200183815260200188600654610f2d9190612915565b81526020018281526020016000815260200160006007811115610f5357610f5261283b565b5b8152602001600073ffffffffffffffffffffffffffffffffffffffff168152602001600073ffffffffffffffffffffffffffffffffffffffff168152602001600073ffffffffffffffffffffffffffffffffffffffff1681525060076000898152602001908152602001600020600082015181600001556020820151816001015560408201518160020160006101000a81548173ffffffffffffffffffffffffffffffffffffffff021916908373ffffffffffffffffffffffffffffffffffffffff16021790555060608201518160030160006101000a81548173ffffffffffffffffffffffffffffffffffffffff021916908373ffffffffffffffffffffffffffffffffffffffff160217905550608082015181600401908051906020019061107e92919061217f565b5060a082015181600501908051906020019061109b92919061217f565b5060c08201518160060190805190602001906110b892919061217f565b5060e08201518160070190805190602001906110d592919061217f565b5061010082015181600801556101208201518160090190805190602001906110fe92919061217f565b5061014082015181600a015561016082015181600b0160006101000a81548160ff021916908360078111156111365761113561283b565b5b021790555061018082015181600b0160016101000a81548173ffffffffffffffffffffffffffffffffffffffff021916908373ffffffffffffffffffffffffffffffffffffffff1602179055506101a082015181600c0160006101000a81548173ffffffffffffffffffffffffffffffffffffffff021916908373ffffffffffffffffffffffffffffffffffffffff1602179055506101c082015181600d0160006101000a81548173ffffffffffffffffffffffffffffffffffffffff021916908373ffffffffffffffffffffffffffffffffffffffff16021790555090505060016006546112259190612915565b6006819055507f8e55ccfc9778ff8eba1646d765cf1982537ce0f9257054a17b48aad7452501838760405161125a919061286a565b60405180910390a150505050505050565b61127433610846565b61127d57600080fd5b80600560078111156112925761129161283b565b5b60076000838152602001908152602001600020600b0160009054906101000a900460ff1660078111156112c8576112c761283b565b5b146112d257600080fd5b336007600084815260200190815260200160002060020160006101000a81548173ffffffffffffffffffffffffffffffffffffffff021916908373ffffffffffffffffffffffffffffffffffffffff1602179055503360076000848152602001908152602001600020600c0160006101000a81548173ffffffffffffffffffffffffffffffffffffffff021916908373ffffffffffffffffffffffffffffffffffffffff160217905550600660076000848152602001908152602001600020600b0160006101000a81548160ff021916908360078111156113b6576113b561283b565b5b02179055507fa8142743f8f70a4c26f3691cf4ed59718381fb2f18070ec52be1f1022d855557826040516113ea919061286a565b60405180910390a15050565b6113ff33610e17565b61140857600080fd5b806006600781111561141d5761141c61283b565b5b60076000838152602001908152602001600020600b0160009054906101000a900460ff1660078111156114535761145261283b565b5b1461145d57600080fd5b336007600084815260200190815260200160002060020160006101000a81548173ffffffffffffffffffffffffffffffffffffffff021916908373ffffffffffffffffffffffffffffffffffffffff1602179055503360076000848152602001908152602001600020600d0160006101000a81548173ffffffffffffffffffffffffffffffffffffffff021916908373ffffffffffffffffffffffffffffffffffffffff1602179055506007806000848152602001908152602001600020600b0160006101000a81548160ff021916908360078111156115405761153f61283b565b5b02179055507f653d56639fee6b566a5c804764e9689de38645f0b733df89a36a1b7b42173dd882604051611574919061286a565b60405180910390a15050565b61158933612072565b565b61159433610e7b565b61159d57600080fd5b80600360078111156115b2576115b161283b565b5b60076000838152602001908152602001600020600b0160009054906101000a900460ff1660078111156115e8576115e761283b565b5b146115f257600080fd5b60076000838152602001908152602001600020600a01548034101561161657600080fd5b82336007600086815260200190815260200160002060020160006101000a81548173ffffffffffffffffffffffffffffffffffffffff021916908373ffffffffffffffffffffffffffffffffffffffff1602179055503360076000868152602001908152602001600020600b0160016101000a81548173ffffffffffffffffffffffffffffffffffffffff021916908373ffffffffffffffffffffffffffffffffffffffff160217905550600460076000868152602001908152602001600020600b0160006101000a81548160ff021916908360078111156116fb576116fa61283b565b5b02179055506007600085815260200190815260200160002060030160009054906101000a900473ffffffffffffffffffffffffffffffffffffffff1673ffffffffffffffffffffffffffffffffffffffff166108fc60076000878152602001908152602001600020600a01549081150290604051600060405180830381858888f19350505050158015611792573d6000803e3d6000fd5b507f92f64ca637d023f354075a4be751b169c1a8a9ccb6d33cdd0cb3520543995727846040516117c2919061286a565b60405180910390a1600060076000838152602001908152602001600020600a01549050600081346117f3919061296b565b905060076000848152602001908152602001600020600d0160009054906101000a900473ffffffffffffffffffffffffffffffffffffffff1673ffffffffffffffffffffffffffffffffffffffff166108fc829081150290604051600060405180830381858888f19350505050158015611871573d6000803e3d6000fd5b50505050505050565b611882611dc8565b600073ffffffffffffffffffffffffffffffffffffffff168173ffffffffffffffffffffffffffffffffffffffff1614156118f2576040517f08c379a00000000000000000000000000000000000000000000000000000000081526004016118e990612a11565b60405180910390fd5b6118fb81611e46565b50565b80600160078111156119135761191261283b565b5b60076000838152602001908152602001600020600b0160009054906101000a900460ff1660078111156119495761194861283b565b5b1461195357600080fd5b6007600083815260200190815260200160002060030160009054906101000a900473ffffffffffffffffffffffffffffffffffffffff168073ffffffffffffffffffffffffffffffffffffffff163373ffffffffffffffffffffffffffffffffffffffff16146119c257600080fd5b600260076000858152602001908152602001600020600b0160006101000a81548160ff021916908360078111156119fc576119fb61283b565b5b02179055507f9b3b66e2380b690bae22c73ef1428fb0c91e72fe14a4b6defa13035214187aff83604051611a30919061286a565b60405180910390a1505050565b8060046007811115611a5257611a5161283b565b5b60076000838152602001908152602001600020600b0160009054906101000a900460ff166007811115611a8857611a8761283b565b5b14611a9257600080fd5b60076000838152602001908152602001600020600b0160019054906101000a900473ffffffffffffffffffffffffffffffffffffffff168073ffffffffffffffffffffffffffffffffffffffff163373ffffffffffffffffffffffffffffffffffffffff1614611b0157600080fd5b600560076000858152602001908152602001600020600b0160006101000a81548160ff02191690836007811115611b3b57611b3a61283b565b5b02179055507ff00b9a5725b80c54016f42114f6ed7792d22eecb116011c4afac29c57bef6c9583604051611b6f919061286a565b60405180910390a1505050565b600073ffffffffffffffffffffffffffffffffffffffff168173ffffffffffffffffffffffffffffffffffffffff161415611bb657600080fd5b611bc08282611c82565b15611bca57600080fd5b60018260000160008373ffffffffffffffffffffffffffffffffffffffff1673ffffffffffffffffffffffffffffffffffffffff16815260200190815260200160002060006101000a81548160ff0219169083151502179055505050565b611c3c816001611b7c90919063ffffffff16565b8073ffffffffffffffffffffffffffffffffffffffff167f28b26e7a3d20aedbc5f8f2ebf7da671c0491723a2b78f47a097b0e46dee0714260405160405180910390a250565b60008073ffffffffffffffffffffffffffffffffffffffff168273ffffffffffffffffffffffffffffffffffffffff161415611cbd57600080fd5b8260000160008373ffffffffffffffffffffffffffffffffffffffff1673ffffffffffffffffffffffffffffffffffffffff16815260200190815260200160002060009054906101000a900460ff16905092915050565b611d288160016120cc90919063ffffffff16565b8073ffffffffffffffffffffffffffffffffffffffff167fe3f5ed5f263f1f01764a96edfc7d025f511ec5f7d180e8816908b78bcf74f09860405160405180910390a250565b611d828160036120cc90919063ffffffff16565b8073ffffffffffffffffffffffffffffffffffffffff167f126174f6cf49c81cdb4a9214c6b8f037bef55b4ec31e4fc776cea2a1c8a88d5960405160405180910390a250565b611dd0612177565b73ffffffffffffffffffffffffffffffffffffffff16611dee610e34565b73ffffffffffffffffffffffffffffffffffffffff1614611e44576040517f08c379a0000000000000000000000000000000000000000000000000000000008152600401611e3b90612a7d565b60405180910390fd5b565b60008060009054906101000a900473ffffffffffffffffffffffffffffffffffffffff169050816000806101000a81548173ffffffffffffffffffffffffffffffffffffffff021916908373ffffffffffffffffffffffffffffffffffffffff1602179055508173ffffffffffffffffffffffffffffffffffffffff168173ffffffffffffffffffffffffffffffffffffffff167f8be0079c531659141344cd1fd0a4f28419497f9722a3daafe3b4186f6b6457e060405160405180910390a35050565b611f1e816003611b7c90919063ffffffff16565b8073ffffffffffffffffffffffffffffffffffffffff167fddbf200aa634dc3fb81cfd68583dd1040d1c751d335e1d86b631bde3e977fea860405160405180910390a250565b611f78816002611b7c90919063ffffffff16565b8073ffffffffffffffffffffffffffffffffffffffff167f2e0ded4123377a3c2bc9a26f1717655a129e2f20752924d42e730ec89c83dbd060405160405180910390a250565b611fd28160026120cc90919063ffffffff16565b8073ffffffffffffffffffffffffffffffffffffffff167fa5e0f060af304ab17dd418c7927e3da3ae7868189bf387aee09ab179ccc572f260405160405180910390a250565b61202c816004611b7c90919063ffffffff16565b8073ffffffffffffffffffffffffffffffffffffffff167f71ae26cad02663e3d92efd6ec56031a80d74a20c0ab4183faa8bf262261c9baa60405160405180910390a250565b6120868160046120cc90919063ffffffff16565b8073ffffffffffffffffffffffffffffffffffffffff167fdb7176e79cffef81cb01767dd0447a0b24bb72ca9778d4b245581086b2a7e6db60405160405180910390a250565b600073ffffffffffffffffffffffffffffffffffffffff168173ffffffffffffffffffffffffffffffffffffffff16141561210657600080fd5b6121108282611c82565b61211957600080fd5b60008260000160008373ffffffffffffffffffffffffffffffffffffffff1673ffffffffffffffffffffffffffffffffffffffff16815260200190815260200160002060006101000a81548160ff0219169083151502179055505050565b600033905090565b82805461218b906128b4565b90600052602060002090601f0160209004810192826121ad57600085556121f4565b82601f106121c657805160ff19168380011785556121f4565b828001600101855582156121f4579182015b828111156121f35782518255916020019190600101906121d8565b5b5090506122019190612205565b5090565b5b8082111561221e576000816000905550600101612206565b5090565b6000604051905090565b600080fd5b600080fd5b600073ffffffffffffffffffffffffffffffffffffffff82169050919050565b600061226182612236565b9050919050565b61227181612256565b811461227c57600080fd5b50565b60008135905061228e81612268565b92915050565b6000602082840312156122aa576122a961222c565b5b60006122b88482850161227f565b91505092915050565b6000819050919050565b6122d4816122c1565b81146122df57600080fd5b50565b6000813590506122f1816122cb565b92915050565b6000806040838503121561230e5761230d61222c565b5b600061231c858286016122e2565b925050602061232d858286016122e2565b9150509250929050565b60006020828403121561234d5761234c61222c565b5b600061235b848285016122e2565b91505092915050565b60008115159050919050565b61237981612364565b82525050565b60006020820190506123946000830184612370565b92915050565b6123a3816122c1565b82525050565b600081519050919050565b600082825260208201905092915050565b60005b838110156123e35780820151818401526020810190506123c8565b838111156123f2576000848401525b50505050565b6000601f19601f8301169050919050565b6000612414826123a9565b61241e81856123b4565b935061242e8185602086016123c5565b612437816123f8565b840191505092915050565b61244b81612256565b82525050565b600061012082019050612467600083018c61239a565b612474602083018b61239a565b612481604083018a61239a565b81810360608301526124938189612409565b90506124a2608083018861239a565b6124af60a083018761239a565b6124bc60c0830186612442565b6124c960e0830185612442565b6124d7610100830184612442565b9a9950505050505050505050565b6000610100820190506124fb600083018b61239a565b612508602083018a61239a565b6125156040830189612442565b6125226060830188612442565b81810360808301526125348187612409565b905081810360a08301526125488186612409565b905081810360c083015261255c8185612409565b905081810360e08301526125708184612409565b90509998505050505050505050565b60006020820190506125946000830184612442565b92915050565b60006125a582612236565b9050919050565b6125b58161259a565b81146125c057600080fd5b50565b6000813590506125d2816125ac565b92915050565b600080fd5b600080fd5b7f4e487b7100000000000000000000000000000000000000000000000000000000600052604160045260246000fd5b61261a826123f8565b810181811067ffffffffffffffff82111715612639576126386125e2565b5b80604052505050565b600061264c612222565b90506126588282612611565b919050565b600067ffffffffffffffff821115612678576126776125e2565b5b612681826123f8565b9050602081019050919050565b82818337600083830152505050565b60006126b06126ab8461265d565b612642565b9050828152602081018484840111156126cc576126cb6125dd565b5b6126d784828561268e565b509392505050565b600082601f8301126126f4576126f36125d8565b5b813561270484826020860161269d565b91505092915050565b600080600080600080600060e0888a03121561272c5761272b61222c565b5b600061273a8a828b016122e2565b975050602061274b8a828b016125c3565b965050604088013567ffffffffffffffff81111561276c5761276b612231565b5b6127788a828b016126df565b955050606088013567ffffffffffffffff81111561279957612798612231565b5b6127a58a828b016126df565b945050608088013567ffffffffffffffff8111156127c6576127c5612231565b5b6127d28a828b016126df565b93505060a088013567ffffffffffffffff8111156127f3576127f2612231565b5b6127ff8a828b016126df565b92505060c088013567ffffffffffffffff8111156128205761281f612231565b5b61282c8a828b016126df565b91505092959891949750929550565b7f4e487b7100000000000000000000000000000000000000000000000000000000600052602160045260246000fd5b600060208201905061287f600083018461239a565b92915050565b7f4e487b7100000000000000000000000000000000000000000000000000000000600052602260045260246000fd5b600060028204905060018216806128cc57607f821691505b602082108114156128e0576128df612885565b5b50919050565b7f4e487b7100000000000000000000000000000000000000000000000000000000600052601160045260246000fd5b6000612920826122c1565b915061292b836122c1565b9250827fffffffffffffffffffffffffffffffffffffffffffffffffffffffffffffffff038211156129605761295f6128e6565b5b828201905092915050565b6000612976826122c1565b9150612981836122c1565b925082821015612994576129936128e6565b5b828203905092915050565b7f4f776e61626c653a206e6577206f776e657220697320746865207a65726f206160008201527f6464726573730000000000000000000000000000000000000000000000000000602082015250565b60006129fb6026836123b4565b9150612a068261299f565b604082019050919050565b60006020820190508181036000830152612a2a816129ee565b9050919050565b7f4f776e61626c653a2063616c6c6572206973206e6f7420746865206f776e6572600082015250565b6000612a676020836123b4565b9150612a7282612a31565b602082019050919050565b60006020820190508181036000830152612a9681612a5a565b905091905056fea264697066735822122006bdc3fb4afafc33c0b2440d4bc1561ba968d80792755bb15a86d43f9c61d8b264736f6c634300080b0033",
  "immutableReferences": {},
  "source": "// SPDX-License-Identifier: MIT\r\npragma solidity >=0.4.22 <0.9.0;\r\n\r\nimport \"@openzeppelin/contracts/access/Ownable.sol\";\r\nimport \"./accesscontrol/ConsumerRole.sol\";\r\nimport \"./accesscontrol/DistributorRole.sol\";\r\nimport \"./accesscontrol/FarmerRole.sol\";\r\nimport \"./accesscontrol/RetailerRole.sol\";\r\n\r\ncontract SupplyChain is Ownable, ConsumerRole, FarmerRole, DistributorRole, RetailerRole {\r\n\r\n    // universal product code, generated by the farmer, goes on the package, can be verified by the consumer\r\n    uint upc;\r\n\r\n    // stock keeping unit\r\n    uint sku;\r\n\r\n     // Define enum 'State' with the following values:\r\n    enum State { \r\n        Harvested,  // 0\r\n        Processed,  // 1\r\n        Packed,     // 2\r\n        ForSale,    // 3\r\n        Sold,       // 4\r\n        Shipped,    // 5\r\n        Received,   // 6\r\n        Purchased   // 7\r\n    }\r\n\r\n    State constant defaultState = State.Harvested;\r\n\r\n    struct Item {\r\n        uint sku; \r\n        uint upc; \r\n        address payable ownerID; // address of the current owner \r\n        address payable farmerID; // address of the farmer\r\n        string farmName;\r\n        string farmInformation; \r\n        string farmLatitude;\r\n        string farmLongitude;\r\n        uint productID; // a product id, might be a combination of sku and upc\r\n        string productNotes;\r\n        uint productPrice;\r\n        State itemState; \r\n        address payable distributorID; // address of the distributor\r\n        address payable retailerID; // address of the retailer\r\n        address payable consumerID; // address of the consumer\r\n    }\r\n\r\n    //map the UPC to an Item\r\n    mapping (uint => Item) items;\r\n\r\n    // Define a public mapping 'itemsHistory' that maps the UPC to an array of TxHash, \r\n    // that track its journey through the supply chain -- to be sent from DApp.\r\n    mapping (uint => string[]) itemsHistory;\r\n\r\n    // Define 8 events with the same 8 state values and accept 'upc' as input argument\r\n    event Harvested(uint upc);\r\n    event Processed(uint upc);\r\n    event Packed(uint upc);\r\n    event ForSale(uint upc);\r\n    event Sold(uint upc);\r\n    event Shipped(uint upc);\r\n    event Received(uint upc);\r\n    event Purchased(uint upc);\r\n\r\n    modifier verifyCaller(address _address) {\r\n        require(msg.sender == _address);\r\n        _;\r\n    }\r\n\r\n    modifier paidEnough(uint _price) {\r\n        require(msg.value >= _price);\r\n        _;\r\n    }\r\n    \r\n    modifier checkValue(uint _upc) {\r\n        _;\r\n        uint _price = items[_upc].productPrice;\r\n        uint amountToReturn = msg.value - _price;\r\n        items[_upc].consumerID.transfer(amountToReturn);\r\n    }\r\n\r\n    modifier harvested(uint _upc) {\r\n        require(items[_upc].itemState == State.Harvested);\r\n        _;\r\n    }\r\n\r\n    modifier processed(uint _upc) {\r\n        require(items[_upc].itemState == State.Processed);\r\n        _;\r\n    }\r\n\r\n    modifier packed(uint _upc) {\r\n        require(items[_upc].itemState == State.Packed);\r\n        _;\r\n    }\r\n\r\n    modifier forSale(uint _upc) {\r\n        require(items[_upc].itemState == State.ForSale);\r\n        _;\r\n    }\r\n\r\n    modifier sold(uint _upc) {\r\n        require(items[_upc].itemState == State.Sold);\r\n        _;\r\n    }\r\n    \r\n    modifier shipped(uint _upc) {\r\n        require(items[_upc].itemState == State.Shipped);\r\n        _;\r\n    }\r\n\r\n    modifier received(uint _upc) {\r\n        require(items[_upc].itemState == State.Received);\r\n        _;\r\n    }\r\n\r\n    modifier purchased(uint _upc) {\r\n        require(items[_upc].itemState == State.Purchased);\r\n        _;\r\n    }\r\n\r\n    // In the constructor set 'sku' to 1\r\n    // and set 'upc' to 1\r\n    constructor() payable {\r\n        sku = 1;\r\n        upc = 1;\r\n    }\r\n\r\n    function harvestItem(uint _upc, address payable _farmerID, string memory _farmName, string memory _farmInformation, string memory _farmLatitude, string memory _farmLongitude, string memory _productNotes) public \r\n    {\r\n        items[_upc] = Item ({\r\n            sku: sku,\r\n            upc: _upc,\r\n            ownerID: _farmerID,\r\n            farmerID: _farmerID,\r\n            farmName: _farmName,\r\n            farmInformation: _farmInformation,\r\n            farmLongitude: _farmLongitude,\r\n            farmLatitude: _farmLatitude,\r\n            productID: sku + _upc,\r\n            productNotes: _productNotes,\r\n            productPrice: 0,\r\n            itemState: State.Harvested,\r\n            distributorID: payable(address(0)),\r\n            retailerID: payable(address(0)),\r\n            consumerID: payable(address(0))\r\n        });\r\n        \r\n        sku = sku + 1;\r\n\r\n        emit Harvested(_upc);\r\n    }\r\n\r\n    function processItem(uint _upc) public harvested(_upc) verifyCaller(items[_upc].farmerID)\r\n    {\r\n        items[_upc].itemState = State.Processed;\r\n        emit Processed(_upc);\r\n    }\r\n\r\n    function packItem(uint _upc) public processed(_upc) verifyCaller(items[_upc].farmerID)\r\n    {\r\n        items[_upc].itemState = State.Packed;\r\n        emit Packed(_upc);\r\n    }\r\n\r\n    function sellItem(uint _upc, uint _price) public packed(_upc) verifyCaller(items[_upc].farmerID)\r\n    {\r\n        items[_upc].itemState = State.ForSale;\r\n        items[_upc].productPrice = _price;\r\n\r\n        emit ForSale(_upc);\r\n    }   \r\n\r\n    function buyItem(uint _upc) onlyDistributor public payable forSale(_upc) paidEnough(items[_upc].productPrice) checkValue(_upc)\r\n    {\r\n        items[_upc].ownerID = payable(msg.sender);\r\n        items[_upc].distributorID = payable(msg.sender);\r\n        items[_upc].itemState = State.Sold;\r\n\r\n        items[_upc].farmerID.transfer(items[_upc].productPrice);\r\n\r\n        emit Sold(_upc);\r\n    }\r\n\r\n    function shipItem(uint _upc) public sold(_upc) verifyCaller(items[_upc].distributorID)\r\n    {\r\n        items[_upc].itemState = State.Shipped;\r\n        emit Shipped(_upc);\r\n    }\r\n\r\n    function receiverItem(uint _upc) onlyRetailer public shipped(_upc)\r\n    {\r\n        items[_upc].ownerID = payable(msg.sender);\r\n        items[_upc].retailerID = payable(msg.sender);\r\n        items[_upc].itemState = State.Received;\r\n\r\n        emit Received(_upc);\r\n    }\r\n\r\n    function purchaseItem(uint _upc) onlyConsumer public received(_upc) \r\n    {\r\n        items[_upc].ownerID = payable(msg.sender);\r\n        items[_upc].consumerID = payable(msg.sender);\r\n        items[_upc].itemState = State.Purchased;\r\n\r\n        emit Purchased(_upc);\r\n\r\n    }\r\n\r\n    function fetchItemBufferOne(uint _upc) public view returns \r\n    (\r\n    uint itemSKU,\r\n    uint itemUPC,\r\n    address ownerID,\r\n    address farmerID,\r\n    string memory farmName,\r\n    string memory farmInformation,\r\n    string memory farmLatitude,\r\n    string memory farmLongitude\r\n    ) \r\n    {\r\n        // Assign values to the 8 parameters\r\n        itemSKU = items[_upc].sku;\r\n        itemUPC = items[_upc].upc;\r\n        ownerID = items[_upc].ownerID;\r\n        farmerID = items[_upc].farmerID;\r\n        farmName = items[_upc].farmName;\r\n        farmInformation = items[_upc].farmInformation;\r\n        farmLatitude = items[_upc].farmLatitude;\r\n        farmLongitude = items[_upc].farmLongitude;      \r\n\r\n        return \r\n        (\r\n        itemSKU,\r\n        itemUPC,\r\n        ownerID,\r\n        farmerID,\r\n        farmName,\r\n        farmInformation,\r\n        farmLatitude,\r\n        farmLongitude\r\n        );\r\n    }\r\n\r\n   function fetchItemBufferTwo(uint _upc) public view returns \r\n    (\r\n    uint itemSKU,\r\n    uint itemUPC,\r\n    uint productID,\r\n    string memory productNotes,\r\n    uint productPrice,\r\n    uint itemState,\r\n    address distributorID,\r\n    address retailerID,\r\n    address consumerID\r\n    ) \r\n    {\r\n        // Assign values to the 9 parameters\r\n        itemSKU = items[_upc].sku;\r\n        itemUPC = items[_upc].upc;\r\n        productID = items[_upc].productID;\r\n        productNotes = items[_upc].productNotes;\r\n        productPrice = items[_upc].productPrice;\r\n        //convert to numeric value\r\n        itemState =  uint(items[_upc].itemState);\r\n        distributorID = items[_upc].distributorID;\r\n        retailerID = items[_upc].retailerID;\r\n        consumerID = items[_upc].consumerID;\r\n        \r\n    return \r\n    (\r\n    itemSKU,\r\n    itemUPC,\r\n    productID,\r\n    productNotes,\r\n    productPrice,\r\n    itemState,\r\n    distributorID,\r\n    retailerID,\r\n    consumerID\r\n    );\r\n    }\r\n}",
  "sourcePath": "C:\\Users\\Ammar Voloder\\Desktop\\master-implementation\\Ethereum\\eth-supply-chain-management\\contracts\\SupplyChain.sol",
  "compiler": {
    "name": "solc",
    "version": "0.8.11+commit.d7f03943.Emscripten.clang"
  },
  "schemaVersion": "3.4.4",
  "updatedAt": "2022-11-08T21:15:11.074Z",
  "networkType": "ethereum",
  "devdoc": {
    "kind": "dev",
    "methods": {
      "owner()": {
        "details": "Returns the address of the current owner."
      },
      "renounceOwnership()": {
        "details": "Leaves the contract without owner. It will not be possible to call `onlyOwner` functions anymore. Can only be called by the current owner. NOTE: Renouncing ownership will leave the contract without an owner, thereby removing any functionality that is only available to the owner."
      },
      "transferOwnership(address)": {
        "details": "Transfers ownership of the contract to a new account (`newOwner`). Can only be called by the current owner."
      }
    },
    "version": 1
  },
  "userdoc": {
    "kind": "user",
    "methods": {},
    "version": 1
  }
}